:020000040000FA
:060000000A128A11FC2F18
:100E800083160313880183120313880108000A12D2
:100E90008A1140270A128A11831203138801F5016F
:100EA000F6010030F4000030F3000030F2000030B2
:100EB000F1000130F107003003180130F207003073
:100EC00003180130F307003003180130F407A13094
:100ED0007106863003197206031D732F73037404A1
:100EE000031D732F742F592FF61B772F782F8A2FFE
:100EF0007608803AFF0080307F02031D812F083082
:100F000075020318842F852F8A2F0314831203136D
:100F1000880DF22F7608803AFF0080307F02031D93
:100F2000932F08307502031C962F972FAB2F76084E
:100F3000803AFF0080307F02031DA02F1030750221
:100F40000318A32FA42FAB2F831203130808F0005C
:100F500070078800F22F7608803AFF0080307F0209
:100F6000031DB42F10307502031CB72FB82FCE2FDE
:100F70007608803AFF0080307F02031DC12F1830B1
:100F800075020318C42FC52FCE2F83120313080830
:100F9000F0000310700C80388800F22F7608803A39
:100FA000FF0080307F02031DD72F18307502031C0D
:100FB000DA2FDB2FF02F7608803AFF0080307F0297
:100FC000031DE42F203075020318E72FE82FF02FC0
:100FD000831203130808F0000310700C8800F22F2E
:100FE000F501F6010130F5070318F60A0030F6079F
:100FF000512F0A128A11002883010A128A11472FE1
:02400E00FB3F76
:00000001FF
