:020000040000FA
:060000000A128A11FC2F18
:100B280083160313880183120313880183160313A2
:100B380006080138860008000A128A1194250A124C
:100B48008A11003083120313AF000030AE0000306A
:100B5800AD000030AC000030B3000030B20000300F
:100B6800B1000030B0000030A3000030A200003017
:100B7800A1000030A0000030A7000030A60000301F
:100B8800A5000130A4000030AB000030AA000030FE
:100B9800A9000130A800831203130618D42DD52DFF
:100BA800292E27082604250424040319DC2DDD2D0D
:100BB800292E2308220421042004031DE42DE52DF9
:100BC800FC2D0030AB000030AA000030A900023034
:100BD800A8000130A007003003180130A107003039
:100BE80003180130A207003003180130A307202E94
:100BF8000030AB000030AA000030A9000130A80086
:100C08000130F0000030F1000030F2000030F30055
:100C18007008A0027108031C710F132E142EA10274
:100C28007208031C720F192E1A2EA2027308031CD5
:100C3800730F1F2E202EA3020030A7000030A6003D
:100C48000030A5000030A400352E061C2C2E2D2EB9
:100C5800352E0030A7000030A6000030A500013076
:100C6800A400280329042A042B04031D3C2E3D2E2E
:100C7800292F831203133308031D4F2E3208031D37
:100C88004F2E3108031D4F2E08303002031D4C2E05
:100C980003184F2E502EA72E013083120313AC07D2
:100CA800003003180130AD07003003180130AE07DB
:100CB800003003180130AF0721302C064E300319DD
:100CC8002D062E042F04031D6A2E6B2EA72E8312C9
:100CD80003130808031D712E722E8B2E0130880015
:100CE8000030AF000030AE000030AD000030AC0086
:100CF8000130B007003003180130B1070030031885
:100D08000130B207003003180130B307CF2D0808AF
:100D1800F0007007080488000030AF000030AE0013
:100D28000030AD000030AC000130B00700300318CF
:100D38000130B107003003180130B2070030031842
:100D48000130B307CF2D831203133308031DBA2EC6
:100D58003208031DBA2E3108031DBA2E083030029E
:100D6800031DB62E031CB92EBA2EEF2E83120313C1
:100D78003308031DCC2E3208031DCC2E3108031D69
:100D8800CC2E10303002031DC92E0318CC2ECD2EC8
:100D9800EF2E013083120313AC0700300318013023
:100DA800AD07003003180130AE07003003180130DA
:100DB800AF0721302C064E3003192D062E042F04C0
:100DC800031DE72EE82EEF2E831203130808F00008
:100DD80070078800902E10308312031330063104F8
:100DE80032043304031DF92EFA2E282F0130831202
:100DF8000313AC07003003180130AD0700300318A7
:100E08000130AE07003003180130AF0711302C064F
:100E1800273003192D062E042F04031D142F152F18
:100E2800282F003083120313B3000030B2000030C3
:100E3800B1000030B0000030AF000030AE0000302C
:100E4800AD000030AC00CF2DCF2D0230831203133C
:100E5800280629042A042B04031D332F342FCF2DF1
:100E6800831203133308031D462F3208031D462F30
:100E78003108031D462F08303002031D432F031885
:100E8800462F472F892F013083120313AC070030F8
:100E980003180130AD07003003180130AE070030E9
:100EA80003180130AF0721302C064E3003192D06E8
:100EB8002E042F04031D612F622F892F8312031321
:100EC8000808031D682F692F822F803088000030A2
:100ED800AF000030AE000030AD000030AC00013093
:100EE800B007003003180130B10700300318013093
:100EF800B207003003180130B307CF2D0808F000FF
:100F08000310700C08048800902E83120313330812
:100F1800031D9C2F3208031D9C2F3108031D9C2F95
:100F280008303002031D982F031C9B2F9C2FD22FB3
:100F3800831203133308031DAE2F3208031DAE2F8F
:100F48003108031DAE2F10303002031DAB2F0318DC
:100F5800AE2FAF2FD22F013083120313AC0700300E
:100F680003180130AD07003003180130AE07003018
:100F780003180130AF0721302C064E3003192D0617
:100F88002E042F04031DC92FCA2FD22F8312031337
:100F98000808F0000310700C8800902E103083129F
:100FA80003133006310432043304031DDC2FDD2F14
:100FB800282F013083120313AC07003003180130C7
:100FC800AD07003003180130AE07003003180130B8
:100FD800AF0711302C06273003192D062E042F04D5
:100FE800031DF72FF82F282F152F0A128A11002812
:080FF80083010A128A11A02DE9
:02400E00FB3F76
:00000001FF
